:020000020000FC
:1000000016C0A83FD30040A0C0DA12A4A6D5808DA8
:1000100014AF2000E300609050C0E094072938C27C
:100020001C439846196270927092C82AC82AFF9A97
:1000300000270EBD0CBD07E207BD0FE006BD0AE0BC
:100040000DBD07E001B9109AA2E0B0E40D918894CB
:100050008BD1033ED9F703E00BBB00270CBB04E8B0
:100060000DBBF5E069D0A6D096D0EE23D9F3A0E47D
:10007000B0E000E00D93A035E9F7C0E0E0E0D7E0A4
:10008000E0E044E051E070E06F2F6894F0D050F36E
:10009000E894EE23F9F1EBD06894E1FF0CC0ED7F1A
:1000A000733009F47FEF7395E2D090F77A9577FD7E
:1000B0007727DDD0EDCFE2FF0BC0EB7F473043FD6C
:1000C0004F3021F04395D3D018F74A95D0D0E0CFE8
:1000D000E3FF0BC0E77F403043FD4830B9F34A955A
:1000E000C6D0B0F64395C3D0D3CFE0FF13C0EE7FA8
:1000F000550F21F443FD39F048605160B8D050F4F9
:10010000569511F447705068B2D061D0C395E8F3AA
:10011000CA95B6CF07D13FD04DD0DA9561F4E160F2
:10012000D7E0C03140F0D6E0C03228F0D5E0C0348E
:1001300010F0C0E4D4E0ACCFD730A0F03327A8E66D
:10014000B1E40EF4A8E7A30F0C91A0E4B0E0A30F74
:100150000C933395303199F7E5D00FB7689406FDCD
:10016000E894DFEFD39508950000FCFCFCFC000050
:10017000040C1F3F3F1F0C043E203E00000E0A3EB1
:100180001F041F00001D151704EC0DBB0DB30074F8
:10019000E9F709B30895F8DF087F003809F4E26051
:1001A000083C09F4E160083A09F4E460003C09F411
:1001B000E860089507E207BD0FE006BD02E00ABD52
:1001C0000AB501FFFDCFFA95F7FDF5E00895E89433
:1001D000A0E4B0E0B0FD68940FEF9D910923A8342E
:1001E00011F0A035D1F7003019F4AEF788940895D6
:1001F000A0E40EF4A8609C91192F110F07FD26C0F2
:1002000006FD20C005FD1AC004FD14C003FD0EC08C
:1002100002FD08C001FD02C09E7F19C09C7F1370C3
:10022000912B15C0987F1770912B11C0907F1F7074
:10023000912B0DC0907E1F71912B09C0907C1F7374
:10024000912B05C090781F77912B01C0990F3EF438
:10025000A77F1C9117FD9160110F1C93A8609D93BF
:10026000A83448F216F4A03531F608940895A6E1B2
:10027000B0E4062F000F000FA00FA70F0C9181E034
:10028000382F302371F114E9132329F419E21323D1
:1002900029F4142F05C0142F139502C0142F1A959A
:1002A0001F93142718701F9151F520EE232329F472
:1002B00027E0232351F4252F0FC0252F220F61F4AF
:1002C00013FD1DC01860216007C0252F269521F45D
:1002D00013FF15C0177020681EF413D081F40FF4BB
:1002E00016D0880F69F6142F252F2EF40AD039F472
:1002F00017F07894BCCF0BD0F894889408950894A4
:100300000895A0E4A10FB0E09C9192230895A0E489
:10031000A12BB0E09C91922B1EF02095922320956A
:100320009C930895AFE3B0E080E0A3959C91803466
:1003300020F008E0A00F9C91A01B00E09F93082BE9
:100340000F7319F096950850E9F700E090FD0FEF54
:100350009F91089409D08395B7E0B823D1F78038EE
:1003600029F7A73401F7089510981AE01198129808
:100370001A9529F008F4129A119A001FF7CF109AD3
:020380000895DE
:00000001FF
